{
  "contractName": "TodoList",
  "abi": [
    {
      "anonymous": false,
      "inputs": [
        {
          "indexed": false,
          "internalType": "uint256",
          "name": "id",
          "type": "uint256"
        },
        {
          "indexed": false,
          "internalType": "bool",
          "name": "completed",
          "type": "bool"
        }
      ],
      "name": "TaskCompleted",
      "type": "event"
    },
    {
      "anonymous": false,
      "inputs": [
        {
          "indexed": false,
          "internalType": "uint256",
          "name": "id",
          "type": "uint256"
        },
        {
          "indexed": false,
          "internalType": "string",
          "name": "content",
          "type": "string"
        },
        {
          "indexed": false,
          "internalType": "string",
          "name": "catagory",
          "type": "string"
        },
        {
          "indexed": false,
          "internalType": "string",
          "name": "comment",
          "type": "string"
        },
        {
          "indexed": false,
          "internalType": "uint256",
          "name": "vote",
          "type": "uint256"
        },
        {
          "indexed": false,
          "internalType": "uint256",
          "name": "Vmax",
          "type": "uint256"
        },
        {
          "indexed": false,
          "internalType": "bool",
          "name": "completed",
          "type": "bool"
        }
      ],
      "name": "TaskCreated",
      "type": "event"
    },
    {
      "anonymous": false,
      "inputs": [
        {
          "indexed": false,
          "internalType": "uint256",
          "name": "id",
          "type": "uint256"
        },
        {
          "indexed": false,
          "internalType": "uint256",
          "name": "vote",
          "type": "uint256"
        }
      ],
      "name": "TaskVote",
      "type": "event"
    },
    {
      "constant": true,
      "inputs": [],
      "name": "taskCount",
      "outputs": [
        {
          "internalType": "uint256",
          "name": "",
          "type": "uint256"
        }
      ],
      "payable": false,
      "stateMutability": "view",
      "type": "function"
    },
    {
      "constant": true,
      "inputs": [
        {
          "internalType": "uint256",
          "name": "",
          "type": "uint256"
        }
      ],
      "name": "tasks",
      "outputs": [
        {
          "internalType": "uint256",
          "name": "id",
          "type": "uint256"
        },
        {
          "internalType": "string",
          "name": "content",
          "type": "string"
        },
        {
          "internalType": "string",
          "name": "catagory",
          "type": "string"
        },
        {
          "internalType": "string",
          "name": "comment",
          "type": "string"
        },
        {
          "internalType": "uint256",
          "name": "vote",
          "type": "uint256"
        },
        {
          "internalType": "uint256",
          "name": "Vmax",
          "type": "uint256"
        },
        {
          "internalType": "bool",
          "name": "completed",
          "type": "bool"
        }
      ],
      "payable": false,
      "stateMutability": "view",
      "type": "function"
    },
    {
      "constant": false,
      "inputs": [
        {
          "internalType": "string",
          "name": "_content",
          "type": "string"
        },
        {
          "internalType": "string",
          "name": "_catagory",
          "type": "string"
        },
        {
          "internalType": "string",
          "name": "_comment",
          "type": "string"
        },
        {
          "internalType": "uint256",
          "name": "_Vmax",
          "type": "uint256"
        }
      ],
      "name": "createTask",
      "outputs": [],
      "payable": false,
      "stateMutability": "nonpayable",
      "type": "function"
    },
    {
      "constant": false,
      "inputs": [
        {
          "internalType": "uint256",
          "name": "_id",
          "type": "uint256"
        }
      ],
      "name": "toggleCompleted",
      "outputs": [],
      "payable": false,
      "stateMutability": "nonpayable",
      "type": "function"
    },
    {
      "constant": false,
      "inputs": [
        {
          "internalType": "uint256",
          "name": "_id",
          "type": "uint256"
        }
      ],
      "name": "vote",
      "outputs": [],
      "payable": false,
      "stateMutability": "nonpayable",
      "type": "function"
    }
  ],
  "bytecode": "0x60806040526000805534801561001457600080fd5b50610ff7806100246000396000f3fe608060405234801561001057600080fd5b50600436106100575760003560e01c80630121b93f1461005c578063103099f31461007b578063455f5024146102315780638d9776721461024e578063b6cb58a5146103cf575b600080fd5b6100796004803603602081101561007257600080fd5b50356103e9565b005b6100796004803603608081101561009157600080fd5b8101906020810181356401000000008111156100ac57600080fd5b8201836020820111156100be57600080fd5b803590602001918460018302840111640100000000831117156100e057600080fd5b91908080601f016020809104026020016040519081016040528093929190818152602001838380828437600092019190915250929594936020810193503591505064010000000081111561013357600080fd5b82018360208201111561014557600080fd5b8035906020019184600183028401116401000000008311171561016757600080fd5b91908080601f01602080910402602001604051908101604052809392919081815260200183838082843760009201919091525092959493602081019350359150506401000000008111156101ba57600080fd5b8201836020820111156101cc57600080fd5b803590602001918460018302840111640100000000831117156101ee57600080fd5b91908080601f01602080910402602001604051908101604052809392919081815260200183838082843760009201919091525092955050913592506107c4915050565b6100796004803603602081101561024757600080fd5b5035610a14565b61026b6004803603602081101561026457600080fd5b5035610d03565b604051808881526020018060200180602001806020018781526020018681526020018515151515815260200184810384528a818151815260200191508051906020019080838360005b838110156102cc5781810151838201526020016102b4565b50505050905090810190601f1680156102f95780820380516001836020036101000a031916815260200191505b5084810383528951815289516020918201918b019080838360005b8381101561032c578181015183820152602001610314565b50505050905090810190601f1680156103595780820380516001836020036101000a031916815260200191505b5084810382528851815288516020918201918a019080838360005b8381101561038c578181015183820152602001610374565b50505050905090810190601f1680156103b95780820380516001836020036101000a031916815260200191505b509a505050505050505050505060405180910390f35b6103d7610ee2565b60408051918252519081900360200190f35b6103f1610ee8565b600082815260016020818152604092839020835160e0810185528154815281840180548651600296821615610100026000190190911695909504601f8101859004850286018501909652858552909491938584019390929083018282801561049a5780601f1061046f5761010080835404028352916020019161049a565b820191906000526020600020905b81548152906001019060200180831161047d57829003601f168201915b5050509183525050600282810180546040805160206001841615610100026000190190931694909404601f8101839004830285018301909152808452938101939083018282801561052c5780601f106105015761010080835404028352916020019161052c565b820191906000526020600020905b81548152906001019060200180831161050f57829003601f168201915b505050918352505060038201805460408051602060026001851615610100026000190190941693909304601f81018490048402820184019092528181529382019392918301828280156105c05780601f10610595576101008083540402835291602001916105c0565b820191906000526020600020905b8154815290600101906020018083116105a357829003601f168201915b5050509183525050600482015460208201526005820154604082015260069091015460ff1615156060909101526080810180516001019081905260a082015191925014156106eb576000828152600160208181526040909220835181558284015180518594929361063693908501920190610f27565b5060408201518051610652916002840191602090910190610f27565b506060820151805161066e916003840191602090910190610f27565b506080820151600482015560a0820151600582015560c0909101516006909101805460ff19169115159190911790556106a682610a14565b608081015160408051848152602081019290925280517f5047c64d96fe2a8a9f809ef14483a8d1aa28b39a8e13c005fd8470a2f864ed6a9281900390910190a16107c0565b6000828152600160208181526040909220835181558284015180518594929361071993908501920190610f27565b5060408201518051610735916002840191602090910190610f27565b5060608201518051610751916003840191602090910190610f27565b50608082810151600483015560a0830151600583015560c0909201516006909101805460ff191691151591909117905581015160408051848152602081019290925280517f5047c64d96fe2a8a9f809ef14483a8d1aa28b39a8e13c005fd8470a2f864ed6a9281900390910190a15b5050565b6000805460019081018083558083526020828152604090932090815586516107f493919092019190870190610f27565b50600080548152600160209081526040909120845161081b92600290920191860190610f27565b50600080548152600160209081526040909120835161084292600390920191850190610f27565b506000805481526001602090815260408083206004018390558254835280832060050184905582548352808320600601805460ff19169055825481518181526080810185905260a0810186905260c0810185905260e08185018181528a519183019190915289517f2ff7ebc8626d090c930a2974fc53a4aec43e7eedb0d0a02cbeb1d87952a2c0ac9693958b958b958b9590948b948694929391929184019160608501916101008601918c01908083838a5b8381101561090c5781810151838201526020016108f4565b50505050905090810190601f1680156109395780820380516001836020036101000a031916815260200191505b5084810383528951815289516020918201918b019080838360005b8381101561096c578181015183820152602001610954565b50505050905090810190601f1680156109995780820380516001836020036101000a031916815260200191505b5084810382528851815288516020918201918a019080838360005b838110156109cc5781810151838201526020016109b4565b50505050905090810190601f1680156109f95780820380516001836020036101000a031916815260200191505b509a505050505050505050505060405180910390a150505050565b610a1c610ee8565b600082815260016020818152604092839020835160e0810185528154815281840180548651600296821615610100026000190190911695909504601f81018590048502860185019096528585529094919385840193909290830182828015610ac55780601f10610a9a57610100808354040283529160200191610ac5565b820191906000526020600020905b815481529060010190602001808311610aa857829003601f168201915b5050509183525050600282810180546040805160206001841615610100026000190190931694909404601f81018390048302850183019091528084529381019390830182828015610b575780601f10610b2c57610100808354040283529160200191610b57565b820191906000526020600020905b815481529060010190602001808311610b3a57829003601f168201915b505050918352505060038201805460408051602060026001851615610100026000190190941693909304601f8101849004840282018401909252818152938201939291830182828015610beb5780601f10610bc057610100808354040283529160200191610beb565b820191906000526020600020905b815481529060010190602001808311610bce57829003601f168201915b50505091835250506004820154602080830191909152600583015460408084019190915260069093015460ff16151560609092019190915260c083018051159052600085815260018083529290208351815583820151805194955085949193610c5a9390850192910190610f27565b5060408201518051610c76916002840191602090910190610f27565b5060608201518051610c92916003840191602090910190610f27565b506080820151600482015560a0820151600582015560c0918201516006909101805460ff191691151591909117905581015160408051848152911515602083015280517fe21fa966ca5cd02748c0752352d18c48165e61cb55b4c29cccf924b5a95fcff19281900390910190a15050565b600160208181526000928352604092839020805481840180548651600296821615610100026000190190911695909504601f81018590048502860185019096528585529094919392909190830182828015610d9f5780601f10610d7457610100808354040283529160200191610d9f565b820191906000526020600020905b815481529060010190602001808311610d8257829003601f168201915b50505060028085018054604080516020601f6000196101006001871615020190941695909504928301859004850281018501909152818152959695945090925090830182828015610e315780601f10610e0657610100808354040283529160200191610e31565b820191906000526020600020905b815481529060010190602001808311610e1457829003601f168201915b5050505060038301805460408051602060026001851615610100026000190190941693909304601f8101849004840282018401909252818152949594935090830182828015610ec15780601f10610e9657610100808354040283529160200191610ec1565b820191906000526020600020905b815481529060010190602001808311610ea457829003601f168201915b50505050600483015460058401546006909401549293909290915060ff1687565b60005481565b6040518060e001604052806000815260200160608152602001606081526020016060815260200160008152602001600081526020016000151581525090565b828054600181600116156101000203166002900490600052602060002090601f016020900481019282601f10610f6857805160ff1916838001178555610f95565b82800160010185558215610f95579182015b82811115610f95578251825591602001919060010190610f7a565b50610fa1929150610fa5565b5090565b610fbf91905b80821115610fa15760008155600101610fab565b9056fea265627a7a72315820e0eac01c8492fd058e41d37867f34154fefa10efc8356c18ff0801059cada61d64736f6c63430005100032",
  "source": "pragma solidity >=0.4.22 <0.9.0;\r\n\r\ncontract TodoList {\r\n  uint public taskCount = 0;\r\n\r\n  struct Task {\r\n    uint id;\r\n    string content; \r\n    string catagory;\r\n    string comment;\r\n    uint vote;\r\n    uint Vmax;\r\n    bool completed;\r\n  }\r\n\r\n  mapping(uint => Task) public tasks;\r\n\r\n  event TaskCreated(\r\n    uint id,\r\n    string content,\r\n    string catagory,\r\n    string comment,\r\n    uint vote,\r\n    uint Vmax,\r\n    bool completed\r\n  );\r\n\r\n  event TaskCompleted(\r\n    uint id,\r\n    bool completed\r\n  );\r\n\r\n  event TaskVote(\r\n    uint id,\r\n    uint vote\r\n  );\r\n\r\n\r\n\r\n  function createTask(string memory _content , string memory _catagory, string memory _comment,uint _Vmax) public {\r\n    taskCount ++;\r\n    tasks[taskCount].id = taskCount;\r\n    tasks[taskCount].content = _content;\r\n    tasks[taskCount].catagory = _catagory;\r\n    tasks[taskCount].comment = _comment;\r\n    tasks[taskCount].vote = 0;\r\n    tasks[taskCount].Vmax = _Vmax;\r\n    tasks[taskCount].completed = false;\r\n    emit TaskCreated(taskCount, _content  , _catagory, _comment, 0, _Vmax, false);\r\n  }\r\n\r\n  function toggleCompleted(uint _id) public {\r\n    Task memory _task = tasks[_id];\r\n    _task.completed = !_task.completed;\r\n    tasks[_id] = _task;\r\n    emit TaskCompleted(_id, _task.completed);\r\n  }\r\n\r\n  function vote(uint _id) public{\r\n    Task memory _tasks = tasks[_id];\r\n    _tasks.vote = _tasks.vote + 1;\r\n    if(_tasks.Vmax == _tasks.vote){\r\n      tasks[_id] = _tasks;\r\n      toggleCompleted(_id);\r\n      emit TaskVote(_id, _tasks.vote);\r\n    }else{\r\n      tasks[_id] = _tasks;\r\n      emit TaskVote(_id, _tasks.vote);\r\n    }\r\n    \r\n  }\r\n}",
  "sourcePath": "C:\\Users\\66992\\Blockchain\\test2\\contracts\\TodoList.sol",
  "compiler": {
    "name": "solc",
    "version": "0.5.16+commit.9c3226ce.Emscripten.clang"
  },
  "schemaVersion": "3.4.3",
  "updatedAt": "2021-11-14T09:20:36.470Z",
  "networkType": "ethereum",
  "devdoc": {
    "methods": {}
  },
  "userdoc": {
    "methods": {}
  }
}