{
  "contractName": "TodoList",
  "abi": [
    {
      "inputs": [],
      "payable": false,
      "stateMutability": "nonpayable",
      "type": "constructor"
    },
    {
      "anonymous": false,
      "inputs": [
        {
          "indexed": false,
          "internalType": "uint256",
          "name": "id",
          "type": "uint256"
        },
        {
          "indexed": false,
          "internalType": "bool",
          "name": "completed",
          "type": "bool"
        }
      ],
      "name": "TaskCompleted",
      "type": "event"
    },
    {
      "anonymous": false,
      "inputs": [
        {
          "indexed": false,
          "internalType": "uint256",
          "name": "id",
          "type": "uint256"
        },
        {
          "indexed": false,
          "internalType": "string",
          "name": "content",
          "type": "string"
        },
        {
          "indexed": false,
          "internalType": "string",
          "name": "catagory",
          "type": "string"
        },
        {
          "indexed": false,
          "internalType": "string",
          "name": "comment",
          "type": "string"
        },
        {
          "indexed": false,
          "internalType": "bool",
          "name": "completed",
          "type": "bool"
        }
      ],
      "name": "TaskCreated",
      "type": "event"
    },
    {
      "constant": true,
      "inputs": [],
      "name": "taskCount",
      "outputs": [
        {
          "internalType": "uint256",
          "name": "",
          "type": "uint256"
        }
      ],
      "payable": false,
      "stateMutability": "view",
      "type": "function"
    },
    {
      "constant": true,
      "inputs": [
        {
          "internalType": "uint256",
          "name": "",
          "type": "uint256"
        }
      ],
      "name": "tasks",
      "outputs": [
        {
          "internalType": "uint256",
          "name": "id",
          "type": "uint256"
        },
        {
          "internalType": "string",
          "name": "content",
          "type": "string"
        },
        {
          "internalType": "string",
          "name": "catagory",
          "type": "string"
        },
        {
          "internalType": "string",
          "name": "comment",
          "type": "string"
        },
        {
          "internalType": "bool",
          "name": "completed",
          "type": "bool"
        }
      ],
      "payable": false,
      "stateMutability": "view",
      "type": "function"
    },
    {
      "constant": false,
      "inputs": [
        {
          "internalType": "string",
          "name": "_content",
          "type": "string"
        },
        {
          "internalType": "string",
          "name": "_catagory",
          "type": "string"
        },
        {
          "internalType": "string",
          "name": "_comment",
          "type": "string"
        }
      ],
      "name": "createTask",
      "outputs": [],
      "payable": false,
      "stateMutability": "nonpayable",
      "type": "function"
    },
    {
      "constant": false,
      "inputs": [
        {
          "internalType": "uint256",
          "name": "_id",
          "type": "uint256"
        }
      ],
      "name": "toggleCompleted",
      "outputs": [],
      "payable": false,
      "stateMutability": "nonpayable",
      "type": "function"
    }
  ],
  "bytecode": "0x60806040526000805534801561001457600080fd5b50610b68806100246000396000f3fe608060405234801561001057600080fd5b506004361061004c5760003560e01c8063455f5024146100515780638d97767214610070578063b6cb58a5146101e3578063d2344f0a146101fd575b600080fd5b61006e6004803603602081101561006757600080fd5b50356103b1565b005b61008d6004803603602081101561008657600080fd5b5035610670565b6040518086815260200180602001806020018060200185151515158152602001848103845288818151815260200191508051906020019080838360005b838110156100e25781810151838201526020016100ca565b50505050905090810190601f16801561010f5780820380516001836020036101000a031916815260200191505b50848103835287518152875160209182019189019080838360005b8381101561014257818101518382015260200161012a565b50505050905090810190601f16801561016f5780820380516001836020036101000a031916815260200191505b50848103825286518152865160209182019188019080838360005b838110156101a257818101518382015260200161018a565b50505050905090810190601f1680156101cf5780820380516001836020036101000a031916815260200191505b509850505050505050505060405180910390f35b6101eb610841565b60408051918252519081900360200190f35b61006e6004803603606081101561021357600080fd5b81019060208101813564010000000081111561022e57600080fd5b82018360208201111561024057600080fd5b8035906020019184600183028401116401000000008311171561026257600080fd5b91908080601f01602080910402602001604051908101604052809392919081815260200183838082843760009201919091525092959493602081019350359150506401000000008111156102b557600080fd5b8201836020820111156102c757600080fd5b803590602001918460018302840111640100000000831117156102e957600080fd5b91908080601f016020809104026020016040519081016040528093929190818152602001838380828437600092019190915250929594936020810193503591505064010000000081111561033c57600080fd5b82018360208201111561034e57600080fd5b8035906020019184600183028401116401000000008311171561037057600080fd5b91908080601f016020809104026020016040519081016040528093929190818152602001838380828437600092019190915250929550610847945050505050565b6103b9610a67565b600082815260016020818152604092839020835160a0810185528154815281840180548651600296821615610100026000190190911695909504601f810185900485028601850190965285855290949193858401939092908301828280156104625780601f1061043757610100808354040283529160200191610462565b820191906000526020600020905b81548152906001019060200180831161044557829003601f168201915b5050509183525050600282810180546040805160206001841615610100026000190190931694909404601f810183900483028501830190915280845293810193908301828280156104f45780601f106104c9576101008083540402835291602001916104f4565b820191906000526020600020905b8154815290600101906020018083116104d757829003601f168201915b505050918352505060038201805460408051602060026001851615610100026000190190941693909304601f81018490048402820184019092528181529382019392918301828280156105885780601f1061055d57610100808354040283529160200191610588565b820191906000526020600020905b81548152906001019060200180831161056b57829003601f168201915b50505091835250506004919091015460ff16151560209182015260808201805115905260008481526001808352604090912083518155838301518051949550859491936105da93850192910190610a98565b50604082015180516105f6916002840191602090910190610a98565b5060608201518051610612916003840191602090910190610a98565b50608091820151600491909101805460ff191691151591909117905581015160408051848152911515602083015280517fe21fa966ca5cd02748c0752352d18c48165e61cb55b4c29cccf924b5a95fcff19281900390910190a15050565b600160208181526000928352604092839020805481840180548651600296821615610100026000190190911695909504601f8101859004850286018501909652858552909491939290919083018282801561070c5780601f106106e15761010080835404028352916020019161070c565b820191906000526020600020905b8154815290600101906020018083116106ef57829003601f168201915b50505060028085018054604080516020601f600019610100600187161502019094169590950492830185900485028101850190915281815295969594509092509083018282801561079e5780601f106107735761010080835404028352916020019161079e565b820191906000526020600020905b81548152906001019060200180831161078157829003601f168201915b5050505060038301805460408051602060026001851615610100026000190190941693909304601f810184900484028201840190925281815294959493509083018282801561082e5780601f106108035761010080835404028352916020019161082e565b820191906000526020600020905b81548152906001019060200180831161081157829003601f168201915b5050506004909301549192505060ff1685565b60005481565b60008054600190810180835580835260208281526040909320908155855161087793919092019190860190610a98565b50600080548152600160209081526040909120835161089e92600290920191850190610a98565b5060008054815260016020908152604090912082516108c592600390920191840190610a98565b50600080548152600160209081526040808320600401805460ff19169055825481518181526080810185905260a081850181815289519183019190915288517f59aed97f8a348bc16f8af76ab976d9b7b56efaffa05bd3a9a0054f7498b572879693958a958a958a9590949093909291840191606085019160c08601918a01908083838a5b8381101561096257818101518382015260200161094a565b50505050905090810190601f16801561098f5780820380516001836020036101000a031916815260200191505b50848103835287518152875160209182019189019080838360005b838110156109c25781810151838201526020016109aa565b50505050905090810190601f1680156109ef5780820380516001836020036101000a031916815260200191505b50848103825286518152865160209182019188019080838360005b83811015610a22578181015183820152602001610a0a565b50505050905090810190601f168015610a4f5780820380516001836020036101000a031916815260200191505b509850505050505050505060405180910390a1505050565b6040518060a00160405280600081526020016060815260200160608152602001606081526020016000151581525090565b828054600181600116156101000203166002900490600052602060002090601f016020900481019282601f10610ad957805160ff1916838001178555610b06565b82800160010185558215610b06579182015b82811115610b06578251825591602001919060010190610aeb565b50610b12929150610b16565b5090565b610b3091905b80821115610b125760008155600101610b1c565b9056fea265627a7a72315820fa4201941e4f44b2562b9826a52f3fd9d25f94cbfe802aa608f54d0f0124b55d64736f6c63430005100032",
  "source": "pragma solidity >=0.4.22 <0.9.0;\r\n\r\ncontract TodoList {\r\n  uint public taskCount = 0;\r\n\r\n  struct Task {\r\n    uint id;\r\n    string content; \r\n    string catagory;\r\n    string comment;\r\n    bool completed;\r\n  }\r\n\r\n  mapping(uint => Task) public tasks;\r\n\r\n  event TaskCreated(\r\n    uint id,\r\n    string content,\r\n    string catagory,\r\n    string comment,\r\n    bool completed\r\n  );\r\n\r\n  event TaskCompleted(\r\n    uint id,\r\n    bool completed\r\n  );\r\n\r\n  constructor() public {\r\n    \r\n  }\r\n\r\n  function createTask(string memory _content , string memory _catagory, string memory _comment) public {\r\n    taskCount ++;\r\n    tasks[taskCount].id = taskCount;\r\n    tasks[taskCount].content = _content;\r\n    tasks[taskCount].catagory = _catagory;\r\n    tasks[taskCount].comment = _comment;\r\n    tasks[taskCount].completed = false;\r\n    emit TaskCreated(taskCount, _content  , _catagory, _comment, false);\r\n  }\r\n\r\n  function toggleCompleted(uint _id) public {\r\n    Task memory _task = tasks[_id];\r\n    _task.completed = !_task.completed;\r\n    tasks[_id] = _task;\r\n    emit TaskCompleted(_id, _task.completed);\r\n  }\r\n}",
  "sourcePath": "C:\\Users\\66992\\Blockchain\\test2\\contracts\\TodoList.sol",
  "compiler": {
    "name": "solc",
    "version": "0.5.16+commit.9c3226ce.Emscripten.clang"
  },
  "schemaVersion": "3.4.3",
  "updatedAt": "2021-11-11T07:13:01.911Z",
  "networkType": "ethereum",
  "devdoc": {
    "methods": {}
  },
  "userdoc": {
    "methods": {}
  }
}